{
  "_format": "hh-sol-artifact-1",
  "contractName": "PayStream",
  "sourceName": "contracts/PayStream.sol",
  "abi": [
    {
      "inputs": [
        {
          "internalType": "address",
          "name": "_token",
          "type": "address"
        }
      ],
      "stateMutability": "nonpayable",
      "type": "constructor"
    },
    {
      "inputs": [
        {
          "internalType": "address",
          "name": "token",
          "type": "address"
        }
      ],
      "name": "SafeERC20FailedOperation",
      "type": "error"
    },
    {
      "anonymous": false,
      "inputs": [
        {
          "indexed": true,
          "internalType": "uint256",
          "name": "id",
          "type": "uint256"
        },
        {
          "indexed": true,
          "internalType": "address",
          "name": "payer",
          "type": "address"
        },
        {
          "indexed": true,
          "internalType": "address",
          "name": "payee",
          "type": "address"
        },
        {
          "indexed": false,
          "internalType": "uint256",
          "name": "amount",
          "type": "uint256"
        },
        {
          "indexed": false,
          "internalType": "enum PayStream.Status",
          "name": "status",
          "type": "uint8"
        }
      ],
      "name": "RequestApproved",
      "type": "event"
    },
    {
      "anonymous": false,
      "inputs": [
        {
          "indexed": true,
          "internalType": "uint256",
          "name": "id",
          "type": "uint256"
        },
        {
          "indexed": true,
          "internalType": "address",
          "name": "payer",
          "type": "address"
        },
        {
          "indexed": true,
          "internalType": "address",
          "name": "payee",
          "type": "address"
        },
        {
          "indexed": false,
          "internalType": "uint256",
          "name": "amount",
          "type": "uint256"
        },
        {
          "indexed": false,
          "internalType": "enum PayStream.Status",
          "name": "status",
          "type": "uint8"
        }
      ],
      "name": "RequestCancelled",
      "type": "event"
    },
    {
      "anonymous": false,
      "inputs": [
        {
          "indexed": true,
          "internalType": "uint256",
          "name": "id",
          "type": "uint256"
        },
        {
          "indexed": true,
          "internalType": "address",
          "name": "payer",
          "type": "address"
        },
        {
          "indexed": true,
          "internalType": "address",
          "name": "payee",
          "type": "address"
        },
        {
          "indexed": false,
          "internalType": "uint256",
          "name": "amount",
          "type": "uint256"
        },
        {
          "indexed": false,
          "internalType": "enum PayStream.Status",
          "name": "status",
          "type": "uint8"
        }
      ],
      "name": "RequestCreated",
      "type": "event"
    },
    {
      "inputs": [
        {
          "internalType": "uint256",
          "name": "id",
          "type": "uint256"
        }
      ],
      "name": "approveRequest",
      "outputs": [],
      "stateMutability": "nonpayable",
      "type": "function"
    },
    {
      "inputs": [
        {
          "internalType": "uint256",
          "name": "id",
          "type": "uint256"
        }
      ],
      "name": "cancelRequest",
      "outputs": [],
      "stateMutability": "nonpayable",
      "type": "function"
    },
    {
      "inputs": [
        {
          "internalType": "address",
          "name": "payee",
          "type": "address"
        },
        {
          "internalType": "uint256",
          "name": "amount",
          "type": "uint256"
        }
      ],
      "name": "createRequest",
      "outputs": [
        {
          "internalType": "uint256",
          "name": "",
          "type": "uint256"
        }
      ],
      "stateMutability": "nonpayable",
      "type": "function"
    },
    {
      "inputs": [],
      "name": "nextId",
      "outputs": [
        {
          "internalType": "uint256",
          "name": "",
          "type": "uint256"
        }
      ],
      "stateMutability": "view",
      "type": "function"
    },
    {
      "inputs": [
        {
          "internalType": "uint256",
          "name": "",
          "type": "uint256"
        }
      ],
      "name": "requests",
      "outputs": [
        {
          "internalType": "uint256",
          "name": "id",
          "type": "uint256"
        },
        {
          "internalType": "address",
          "name": "payer",
          "type": "address"
        },
        {
          "internalType": "address",
          "name": "payee",
          "type": "address"
        },
        {
          "internalType": "uint256",
          "name": "amount",
          "type": "uint256"
        },
        {
          "internalType": "enum PayStream.Status",
          "name": "status",
          "type": "uint8"
        }
      ],
      "stateMutability": "view",
      "type": "function"
    },
    {
      "inputs": [],
      "name": "token",
      "outputs": [
        {
          "internalType": "contract IERC20",
          "name": "",
          "type": "address"
        }
      ],
      "stateMutability": "view",
      "type": "function"
    }
  ],
  "bytecode": "0x608060405234801561001057600080fd5b5060405162000ff838038062000ff8833981810160405281019061003491906100de565b80600160006101000a81548173ffffffffffffffffffffffffffffffffffffffff021916908373ffffffffffffffffffffffffffffffffffffffff1602179055505061010b565b600080fd5b600073ffffffffffffffffffffffffffffffffffffffff82169050919050565b60006100ab82610080565b9050919050565b6100bb816100a0565b81146100c657600080fd5b50565b6000815190506100d8816100b2565b92915050565b6000602082840312156100f4576100f361007b565b5b6000610102848285016100c9565b91505092915050565b610edd806200011b6000396000f3fe608060405234801561001057600080fd5b50600436106100625760003560e01c80633015394c1461006757806361b8ce8c1461008357806381d12c58146100a1578063d7d1bbdb146100d5578063edc08925146100f1578063fc0c546a14610121575b600080fd5b610081600480360381019061007c9190610a18565b61013f565b005b61008b610346565b6040516100989190610a54565b60405180910390f35b6100bb60048036038101906100b69190610a18565b61034c565b6040516100cc959493929190610b27565b60405180910390f35b6100ef60048036038101906100ea9190610a18565b6103cf565b005b61010b60048036038101906101069190610ba6565b610671565b6040516101189190610a54565b60405180910390f35b610129610893565b6040516101369190610c45565b60405180910390f35b60006002600083815260200190815260200160002090503373ffffffffffffffffffffffffffffffffffffffff168160010160009054906101000a900473ffffffffffffffffffffffffffffffffffffffff1673ffffffffffffffffffffffffffffffffffffffff16146101e8576040517f08c379a00000000000000000000000000000000000000000000000000000000081526004016101df90610cbd565b60405180910390fd5b600060028111156101fc576101fb610ab0565b5b8160040160009054906101000a900460ff1660028111156102205761021f610ab0565b5b14610260576040517f08c379a000000000000000000000000000000000000000000000000000000000815260040161025790610d29565b60405180910390fd5b60028160040160006101000a81548160ff0219169083600281111561028857610287610ab0565b5b02179055508060020160009054906101000a900473ffffffffffffffffffffffffffffffffffffffff1673ffffffffffffffffffffffffffffffffffffffff168160010160009054906101000a900473ffffffffffffffffffffffffffffffffffffffff1673ffffffffffffffffffffffffffffffffffffffff16837f5682c02e3990c8f2c7bb89d9e5632c34c334370920b5476fbee7d6ebe461be208460030154600260405161033a929190610d49565b60405180910390a45050565b60005481565b60026020528060005260406000206000915090508060000154908060010160009054906101000a900473ffffffffffffffffffffffffffffffffffffffff16908060020160009054906101000a900473ffffffffffffffffffffffffffffffffffffffff16908060030154908060040160009054906101000a900460ff16905085565b60006002600083815260200190815260200160002090503373ffffffffffffffffffffffffffffffffffffffff168160010160009054906101000a900473ffffffffffffffffffffffffffffffffffffffff1673ffffffffffffffffffffffffffffffffffffffff1614610478576040517f08c379a000000000000000000000000000000000000000000000000000000000815260040161046f90610cbd565b60405180910390fd5b6000600281111561048c5761048b610ab0565b5b8160040160009054906101000a900460ff1660028111156104b0576104af610ab0565b5b146104f0576040517f08c379a00000000000000000000000000000000000000000000000000000000081526004016104e790610d29565b60405180910390fd5b60018160040160006101000a81548160ff0219169083600281111561051857610517610ab0565b5b02179055506105b88160010160009054906101000a900473ffffffffffffffffffffffffffffffffffffffff168260020160009054906101000a900473ffffffffffffffffffffffffffffffffffffffff168360030154600160009054906101000a900473ffffffffffffffffffffffffffffffffffffffff1673ffffffffffffffffffffffffffffffffffffffff166108b9909392919063ffffffff16565b8060020160009054906101000a900473ffffffffffffffffffffffffffffffffffffffff1673ffffffffffffffffffffffffffffffffffffffff168160010160009054906101000a900473ffffffffffffffffffffffffffffffffffffffff1673ffffffffffffffffffffffffffffffffffffffff16837fca7c69209ab2ed315e697864ce71fa5f990cce5b9bceecb2e1643478a250f9b284600301546001604051610665929190610d49565b60405180910390a45050565b60008082116106b5576040517f08c379a00000000000000000000000000000000000000000000000000000000081526004016106ac90610dbe565b60405180910390fd5b6000808154809291906106c790610e0d565b91905055506040518060a0016040528060005481526020013373ffffffffffffffffffffffffffffffffffffffff1681526020018473ffffffffffffffffffffffffffffffffffffffff1681526020018381526020016000600281111561073157610730610ab0565b5b81525060026000805481526020019081526020016000206000820151816000015560208201518160010160006101000a81548173ffffffffffffffffffffffffffffffffffffffff021916908373ffffffffffffffffffffffffffffffffffffffff16021790555060408201518160020160006101000a81548173ffffffffffffffffffffffffffffffffffffffff021916908373ffffffffffffffffffffffffffffffffffffffff1602179055506060820151816003015560808201518160040160006101000a81548160ff0219169083600281111561081557610814610ab0565b5b02179055509050508273ffffffffffffffffffffffffffffffffffffffff163373ffffffffffffffffffffffffffffffffffffffff166000547fe3ca9a3b73e5f47a468424a887839f4d4f5bea1515bee8e5621cc3562a9d1ade856000604051610880929190610d49565b60405180910390a4600054905092915050565b600160009054906101000a900473ffffffffffffffffffffffffffffffffffffffff1681565b610935848573ffffffffffffffffffffffffffffffffffffffff166323b872dd8686866040516024016108ee93929190610e55565b604051602081830303815290604052915060e01b6020820180517bffffffffffffffffffffffffffffffffffffffffffffffffffffffff838183161783525050505061093b565b50505050565b600080602060008451602086016000885af18061095e576040513d6000823e3d81fd5b3d925060005191505060008214610979576001811415610995565b60008473ffffffffffffffffffffffffffffffffffffffff163b145b156109d757836040517f5274afe70000000000000000000000000000000000000000000000000000000081526004016109ce9190610e8c565b60405180910390fd5b50505050565b600080fd5b6000819050919050565b6109f5816109e2565b8114610a0057600080fd5b50565b600081359050610a12816109ec565b92915050565b600060208284031215610a2e57610a2d6109dd565b5b6000610a3c84828501610a03565b91505092915050565b610a4e816109e2565b82525050565b6000602082019050610a696000830184610a45565b92915050565b600073ffffffffffffffffffffffffffffffffffffffff82169050919050565b6000610a9a82610a6f565b9050919050565b610aaa81610a8f565b82525050565b7f4e487b7100000000000000000000000000000000000000000000000000000000600052602160045260246000fd5b60038110610af057610aef610ab0565b5b50565b6000819050610b0182610adf565b919050565b6000610b1182610af3565b9050919050565b610b2181610b06565b82525050565b600060a082019050610b3c6000830188610a45565b610b496020830187610aa1565b610b566040830186610aa1565b610b636060830185610a45565b610b706080830184610b18565b9695505050505050565b610b8381610a8f565b8114610b8e57600080fd5b50565b600081359050610ba081610b7a565b92915050565b60008060408385031215610bbd57610bbc6109dd565b5b6000610bcb85828601610b91565b9250506020610bdc85828601610a03565b9150509250929050565b6000819050919050565b6000610c0b610c06610c0184610a6f565b610be6565b610a6f565b9050919050565b6000610c1d82610bf0565b9050919050565b6000610c2f82610c12565b9050919050565b610c3f81610c24565b82525050565b6000602082019050610c5a6000830184610c36565b92915050565b600082825260208201905092915050565b7f4e6f742070617965720000000000000000000000000000000000000000000000600082015250565b6000610ca7600983610c60565b9150610cb282610c71565b602082019050919050565b60006020820190508181036000830152610cd681610c9a565b9050919050565b7f4e6f742070656e64696e67000000000000000000000000000000000000000000600082015250565b6000610d13600b83610c60565b9150610d1e82610cdd565b602082019050919050565b60006020820190508181036000830152610d4281610d06565b9050919050565b6000604082019050610d5e6000830185610a45565b610d6b6020830184610b18565b9392505050565b7f416d6f756e74203e203000000000000000000000000000000000000000000000600082015250565b6000610da8600a83610c60565b9150610db382610d72565b602082019050919050565b60006020820190508181036000830152610dd781610d9b565b9050919050565b7f4e487b7100000000000000000000000000000000000000000000000000000000600052601160045260246000fd5b6000610e18826109e2565b91507fffffffffffffffffffffffffffffffffffffffffffffffffffffffffffffffff8203610e4a57610e49610dde565b5b600182019050919050565b6000606082019050610e6a6000830186610aa1565b610e776020830185610aa1565b610e846040830184610a45565b949350505050565b6000602082019050610ea16000830184610aa1565b9291505056fea264697066735822122042abf46f0add5e0946f2797faaf7ef80b536034a115ecbfe714edf027265537f64736f6c63430008180033",
  "linkReferences": {},
  "deployedLinkReferences": {}
}